{
  "_format": "hh-sol-artifact-1",
  "contractName": "PetInc",
  "sourceName": "contracts/PetInc.sol",
  "abi": [
    {
      "inputs": [],
      "stateMutability": "payable",
      "type": "constructor"
    },
    {
      "anonymous": false,
      "inputs": [
        {
          "indexed": true,
          "internalType": "address",
          "name": "account",
          "type": "address"
        }
      ],
      "name": "AccountCreated",
      "type": "event"
    },
    {
      "anonymous": false,
      "inputs": [
        {
          "indexed": true,
          "internalType": "address",
          "name": "account",
          "type": "address"
        },
        {
          "indexed": false,
          "internalType": "uint256",
          "name": "starsEarned",
          "type": "uint256"
        }
      ],
      "name": "StarsEarned",
      "type": "event"
    },
    {
      "anonymous": false,
      "inputs": [
        {
          "indexed": true,
          "internalType": "address",
          "name": "account",
          "type": "address"
        },
        {
          "indexed": false,
          "internalType": "uint256",
          "name": "starsSpent",
          "type": "uint256"
        },
        {
          "indexed": false,
          "internalType": "string",
          "name": "rewardName",
          "type": "string"
        }
      ],
      "name": "StarsRedeemed",
      "type": "event"
    },
    {
      "inputs": [
        {
          "internalType": "string",
          "name": "rewardName",
          "type": "string"
        },
        {
          "internalType": "uint256",
          "name": "rewardCost",
          "type": "uint256"
        },
        {
          "internalType": "uint256",
          "name": "rewardPrize",
          "type": "uint256"
        },
        {
          "internalType": "uint256",
          "name": "rewardQuantity",
          "type": "uint256"
        }
      ],
      "name": "addReward",
      "outputs": [],
      "stateMutability": "payable",
      "type": "function"
    },
    {
      "inputs": [],
      "name": "createAccount",
      "outputs": [],
      "stateMutability": "nonpayable",
      "type": "function"
    },
    {
      "inputs": [
        {
          "internalType": "uint256",
          "name": "stars",
          "type": "uint256"
        }
      ],
      "name": "earnStars",
      "outputs": [],
      "stateMutability": "nonpayable",
      "type": "function"
    },
    {
      "inputs": [],
      "name": "getStarsBalance",
      "outputs": [
        {
          "internalType": "uint256",
          "name": "",
          "type": "uint256"
        }
      ],
      "stateMutability": "view",
      "type": "function"
    },
    {
      "inputs": [],
      "name": "owner",
      "outputs": [
        {
          "internalType": "address",
          "name": "",
          "type": "address"
        }
      ],
      "stateMutability": "view",
      "type": "function"
    },
    {
      "inputs": [
        {
          "internalType": "string",
          "name": "rewardName",
          "type": "string"
        }
      ],
      "name": "redeemStars",
      "outputs": [],
      "stateMutability": "nonpayable",
      "type": "function"
    },
    {
      "inputs": [],
      "name": "topUp",
      "outputs": [],
      "stateMutability": "payable",
      "type": "function"
    },
    {
      "stateMutability": "payable",
      "type": "receive"
    }
  ],
  "bytecode": "0x608060405233600060016101000a81548173ffffffffffffffffffffffffffffffffffffffff021916908373ffffffffffffffffffffffffffffffffffffffff16021790555060008060006101000a81548160ff021916908315150217905550611daf8061006e6000396000f3fe6080604052600436106100745760003560e01c80638df7ad161161004e5780638df7ad16146100f05780639b24013f146101195780639dca362f14610144578063dc29f1de1461015b5761007b565b806358bd940414610080578063783f88b01461009c5780638da5cb5b146100c55761007b565b3661007b57005b600080fd5b61009a60048036038101906100959190611063565b610165565b005b3480156100a857600080fd5b506100c360048036038101906100be91906110e6565b6103b8565b005b3480156100d157600080fd5b506100da61057a565b6040516100e79190611154565b60405180910390f35b3480156100fc57600080fd5b506101176004803603810190610112919061116f565b6105a0565b005b34801561012557600080fd5b5061012e6109b3565b60405161013b91906111c7565b60405180910390f35b34801561015057600080fd5b50610159610ad1565b005b610163610c54565b005b600060019054906101000a900473ffffffffffffffffffffffffffffffffffffffff1673ffffffffffffffffffffffffffffffffffffffff163373ffffffffffffffffffffffffffffffffffffffff16146101f5576040517f08c379a00000000000000000000000000000000000000000000000000000000081526004016101ec9061123f565b60405180910390fd5b60008311610238576040517f08c379a000000000000000000000000000000000000000000000000000000000815260040161022f906112d1565b60405180910390fd5b6000811161027b576040517f08c379a000000000000000000000000000000000000000000000000000000000815260040161027290611363565b60405180910390fd5b600082116102be576040517f08c379a00000000000000000000000000000000000000000000000000000000081526004016102b5906113f5565b60405180910390fd5b6102c784610ce6565b15610307576040517f08c379a00000000000000000000000000000000000000000000000000000000081526004016102fe90611461565b60405180910390fd5b60405180608001604052808581526020018481526020018381526020018281525060048560405161033891906114f2565b9081526020016040518091039020600082015181600001908161035b9190611715565b506020820151816001015560408201518160020155606082015181600301559050506002849080600181540180825580915050600190039060005260206000200160009091909190915090816103b19190611715565b5050505050565b600060019054906101000a900473ffffffffffffffffffffffffffffffffffffffff1673ffffffffffffffffffffffffffffffffffffffff163373ffffffffffffffffffffffffffffffffffffffff1603610448576040517f08c379a000000000000000000000000000000000000000000000000000000000815260040161043f90611833565b60405180910390fd5b61045133610dd2565b610490576040517f08c379a0000000000000000000000000000000000000000000000000000000008152600401610487906118c5565b60405180910390fd5b600081116104d3576040517f08c379a00000000000000000000000000000000000000000000000000000000081526004016104ca90611957565b60405180910390fd5b80600360003373ffffffffffffffffffffffffffffffffffffffff1673ffffffffffffffffffffffffffffffffffffffff168152602001908152602001600020600082825461052291906119a6565b925050819055503373ffffffffffffffffffffffffffffffffffffffff167ffb26d2427bcd50d4600c2115a46d8c63fd3961b59013517bff2bf3bca45da16c8260405161056f91906111c7565b60405180910390a250565b600060019054906101000a900473ffffffffffffffffffffffffffffffffffffffff1681565b600060019054906101000a900473ffffffffffffffffffffffffffffffffffffffff1673ffffffffffffffffffffffffffffffffffffffff163373ffffffffffffffffffffffffffffffffffffffff1603610630576040517f08c379a000000000000000000000000000000000000000000000000000000000815260040161062790611833565b60405180910390fd5b61063933610dd2565b610678576040517f08c379a000000000000000000000000000000000000000000000000000000000815260040161066f906118c5565b60405180910390fd5b60008054906101000a900460ff16156106c6576040517f08c379a00000000000000000000000000000000000000000000000000000000081526004016106bd90611a26565b60405180910390fd5b60016000806101000a81548160ff0219169083151502179055506106e981610ce6565b610728576040517f08c379a000000000000000000000000000000000000000000000000000000000815260040161071f90611a92565b60405180910390fd5b600060048260405161073a91906114f2565b908152602001604051809103902090506000816003015411610791576040517f08c379a000000000000000000000000000000000000000000000000000000000815260040161078890611afe565b60405180910390fd5b8060010154600360003373ffffffffffffffffffffffffffffffffffffffff1673ffffffffffffffffffffffffffffffffffffffff168152602001908152602001600020541015610817576040517f08c379a000000000000000000000000000000000000000000000000000000000815260040161080e90611b90565b60405180910390fd5b8060010154600360003373ffffffffffffffffffffffffffffffffffffffff1673ffffffffffffffffffffffffffffffffffffffff168152602001908152602001600020600082825461086a9190611bb0565b9250508190555060018160030160008282546108869190611bb0565b9250508190555060003373ffffffffffffffffffffffffffffffffffffffff1682600201546040516108b790611c15565b60006040518083038185875af1925050503d80600081146108f4576040519150601f19603f3d011682016040523d82523d6000602084013e6108f9565b606091505b505090508061093d576040517f08c379a000000000000000000000000000000000000000000000000000000000815260040161093490611c76565b60405180910390fd5b3373ffffffffffffffffffffffffffffffffffffffff167f82393441e5b3bf7de8b4d21142d6416a88fd2a952e10484899de0d204772f7d683600101548460000160405161098c929190611d1a565b60405180910390a2505060008060006101000a81548160ff02191690831515021790555050565b60008060019054906101000a900473ffffffffffffffffffffffffffffffffffffffff1673ffffffffffffffffffffffffffffffffffffffff163373ffffffffffffffffffffffffffffffffffffffff1603610a44576040517f08c379a0000000000000000000000000000000000000000000000000000000008152600401610a3b90611833565b60405180910390fd5b610a4d33610dd2565b610a8c576040517f08c379a0000000000000000000000000000000000000000000000000000000008152600401610a83906118c5565b60405180910390fd5b600360003373ffffffffffffffffffffffffffffffffffffffff1673ffffffffffffffffffffffffffffffffffffffff16815260200190815260200160002054905090565b600060019054906101000a900473ffffffffffffffffffffffffffffffffffffffff1673ffffffffffffffffffffffffffffffffffffffff163373ffffffffffffffffffffffffffffffffffffffff1603610b61576040517f08c379a0000000000000000000000000000000000000000000000000000000008152600401610b5890611833565b60405180910390fd5b610b6a33610dd2565b15610baa576040517f08c379a0000000000000000000000000000000000000000000000000000000008152600401610ba1906118c5565b60405180910390fd5b6001339080600181540180825580915050600190039060005260206000200160009091909190916101000a81548173ffffffffffffffffffffffffffffffffffffffff021916908373ffffffffffffffffffffffffffffffffffffffff1602179055506064600360003373ffffffffffffffffffffffffffffffffffffffff1673ffffffffffffffffffffffffffffffffffffffff16815260200190815260200160002081905550565b600060019054906101000a900473ffffffffffffffffffffffffffffffffffffffff1673ffffffffffffffffffffffffffffffffffffffff163373ffffffffffffffffffffffffffffffffffffffff1614610ce4576040517f08c379a0000000000000000000000000000000000000000000000000000000008152600401610cdb9061123f565b60405180910390fd5b565b600080600090505b600280549050811015610dc757610dab60028281548110610d1257610d11611d4a565b5b906000526020600020018054610d2790611538565b80601f0160208091040260200160405190810160405280929190818152602001828054610d5390611538565b8015610da05780601f10610d7557610100808354040283529160200191610da0565b820191906000526020600020905b815481529060010190602001808311610d8357829003601f168201915b505050505084610e7a565b15610dba576001915050610dcd565b8080600101915050610cee565b50600090505b919050565b600080600090505b600180549050811015610e6f578273ffffffffffffffffffffffffffffffffffffffff1660018281548110610e1257610e11611d4a565b5b9060005260206000200160009054906101000a900473ffffffffffffffffffffffffffffffffffffffff1673ffffffffffffffffffffffffffffffffffffffff1603610e62576001915050610e75565b8080600101915050610dda565b50600090505b919050565b600081604051602001610e8d91906114f2565b6040516020818303038152906040528051906020012083604051602001610eb491906114f2565b6040516020818303038152906040528051906020012014905092915050565b6000604051905090565b600080fd5b600080fd5b600080fd5b600080fd5b6000601f19601f8301169050919050565b7f4e487b7100000000000000000000000000000000000000000000000000000000600052604160045260246000fd5b610f3a82610ef1565b810181811067ffffffffffffffff82111715610f5957610f58610f02565b5b80604052505050565b6000610f6c610ed3565b9050610f788282610f31565b919050565b600067ffffffffffffffff821115610f9857610f97610f02565b5b610fa182610ef1565b9050602081019050919050565b82818337600083830152505050565b6000610fd0610fcb84610f7d565b610f62565b905082815260208101848484011115610fec57610feb610eec565b5b610ff7848285610fae565b509392505050565b600082601f83011261101457611013610ee7565b5b8135611024848260208601610fbd565b91505092915050565b6000819050919050565b6110408161102d565b811461104b57600080fd5b50565b60008135905061105d81611037565b92915050565b6000806000806080858703121561107d5761107c610edd565b5b600085013567ffffffffffffffff81111561109b5761109a610ee2565b5b6110a787828801610fff565b94505060206110b88782880161104e565b93505060406110c98782880161104e565b92505060606110da8782880161104e565b91505092959194509250565b6000602082840312156110fc576110fb610edd565b5b600061110a8482850161104e565b91505092915050565b600073ffffffffffffffffffffffffffffffffffffffff82169050919050565b600061113e82611113565b9050919050565b61114e81611133565b82525050565b60006020820190506111696000830184611145565b92915050565b60006020828403121561118557611184610edd565b5b600082013567ffffffffffffffff8111156111a3576111a2610ee2565b5b6111af84828501610fff565b91505092915050565b6111c18161102d565b82525050565b60006020820190506111dc60008301846111b8565b92915050565b600082825260208201905092915050565b7f4f6e6c7920746865206f776e65722063616e2063616c6c207468697300000000600082015250565b6000611229601c836111e2565b9150611234826111f3565b602082019050919050565b600060208201905081810360008301526112588161121c565b9050919050565b7f52657761726420636f7374206d7573742062652067726561746572207468616e60008201527f2030000000000000000000000000000000000000000000000000000000000000602082015250565b60006112bb6022836111e2565b91506112c68261125f565b604082019050919050565b600060208201905081810360008301526112ea816112ae565b9050919050565b7f526577617264207175616e74697479206d75737420626520677265617465722060008201527f7468616e20300000000000000000000000000000000000000000000000000000602082015250565b600061134d6026836111e2565b9150611358826112f1565b604082019050919050565b6000602082019050818103600083015261137c81611340565b9050919050565b7f526577617264207072697a65206d75737420626520677265617465722074686160008201527f6e20300000000000000000000000000000000000000000000000000000000000602082015250565b60006113df6023836111e2565b91506113ea82611383565b604082019050919050565b6000602082019050818103600083015261140e816113d2565b9050919050565b7f5468697320726577617264206e616d6520616c72656164792065786973740000600082015250565b600061144b601e836111e2565b915061145682611415565b602082019050919050565b6000602082019050818103600083015261147a8161143e565b9050919050565b600081519050919050565b600081905092915050565b60005b838110156114b557808201518184015260208101905061149a565b60008484015250505050565b60006114cc82611481565b6114d6818561148c565b93506114e6818560208601611497565b80840191505092915050565b60006114fe82846114c1565b915081905092915050565b7f4e487b7100000000000000000000000000000000000000000000000000000000600052602260045260246000fd5b6000600282049050600182168061155057607f821691505b60208210810361156357611562611509565b5b50919050565b60008190508160005260206000209050919050565b60006020601f8301049050919050565b600082821b905092915050565b6000600883026115cb7fffffffffffffffffffffffffffffffffffffffffffffffffffffffffffffffff8261158e565b6115d5868361158e565b95508019841693508086168417925050509392505050565b6000819050919050565b600061161261160d6116088461102d565b6115ed565b61102d565b9050919050565b6000819050919050565b61162c836115f7565b61164061163882611619565b84845461159b565b825550505050565b600090565b611655611648565b611660818484611623565b505050565b5b818110156116845761167960008261164d565b600181019050611666565b5050565b601f8211156116c95761169a81611569565b6116a38461157e565b810160208510156116b2578190505b6116c66116be8561157e565b830182611665565b50505b505050565b600082821c905092915050565b60006116ec600019846008026116ce565b1980831691505092915050565b600061170583836116db565b9150826002028217905092915050565b61171e82611481565b67ffffffffffffffff81111561173757611736610f02565b5b6117418254611538565b61174c828285611688565b600060209050601f83116001811461177f576000841561176d578287015190505b61177785826116f9565b8655506117df565b601f19841661178d86611569565b60005b828110156117b557848901518255600182019150602085019450602081019050611790565b868310156117d257848901516117ce601f8916826116db565b8355505b6001600288020188555050505b505050505050565b7f546865204f776e65722063616e6e6f742063616c6c2074686973000000000000600082015250565b600061181d601a836111e2565b9150611828826117e7565b602082019050919050565b6000602082019050818103600083015261184c81611810565b9050919050565b7f4f6e6c7920637573746f6d65727320696e206f7572206461746162617365206360008201527f616e2063616c6c20746869730000000000000000000000000000000000000000602082015250565b60006118af602c836111e2565b91506118ba82611853565b604082019050919050565b600060208201905081810360008301526118de816118a2565b9050919050565b7f5374617273206561726e6564206d75737420626520677265617465722074686160008201527f6e20300000000000000000000000000000000000000000000000000000000000602082015250565b60006119416023836111e2565b915061194c826118e5565b604082019050919050565b6000602082019050818103600083015261197081611934565b9050919050565b7f4e487b7100000000000000000000000000000000000000000000000000000000600052601160045260246000fd5b60006119b18261102d565b91506119bc8361102d565b92508282019050808211156119d4576119d3611977565b5b92915050565b7f4e6f2072652d656e7472616e6379000000000000000000000000000000000000600082015250565b6000611a10600e836111e2565b9150611a1b826119da565b602082019050919050565b60006020820190508181036000830152611a3f81611a03565b9050919050565b7f546869732072657761726420646f6573206e6f74206578697374000000000000600082015250565b6000611a7c601a836111e2565b9150611a8782611a46565b602082019050919050565b60006020820190508181036000830152611aab81611a6f565b9050919050565b7f496e76616c6964207175616e7469747900000000000000000000000000000000600082015250565b6000611ae86010836111e2565b9150611af382611ab2565b602082019050919050565b60006020820190508181036000830152611b1781611adb565b9050919050565b7f596f75206861766520696e73756666696369656e7420737461727320666f722060008201527f7468697320726577617264000000000000000000000000000000000000000000602082015250565b6000611b7a602b836111e2565b9150611b8582611b1e565b604082019050919050565b60006020820190508181036000830152611ba981611b6d565b9050919050565b6000611bbb8261102d565b9150611bc68361102d565b9250828203905081811115611bde57611bdd611977565b5b92915050565b600081905092915050565b50565b6000611bff600083611be4565b9150611c0a82611bef565b600082019050919050565b6000611c2082611bf2565b9150819050919050565b7f526564656d7074696f6e206661696c6564000000000000000000000000000000600082015250565b6000611c606011836111e2565b9150611c6b82611c2a565b602082019050919050565b60006020820190508181036000830152611c8f81611c53565b9050919050565b60008154611ca381611538565b611cad81866111e2565b94506001821660008114611cc85760018114611cde57611d11565b60ff198316865281151560200286019350611d11565b611ce785611569565b60005b83811015611d0957815481890152600182019150602081019050611cea565b808801955050505b50505092915050565b6000604082019050611d2f60008301856111b8565b8181036020830152611d418184611c96565b90509392505050565b7f4e487b7100000000000000000000000000000000000000000000000000000000600052603260045260246000fdfea2646970667358221220395b30d0156bcfe628a3bd9ca055acb12b6814ad6111cd964b5a9421958bb89564736f6c63430008180033",
  "linkReferences": {},
  "deployedLinkReferences": {}
}